:020000040800F2
:10400000FE417774010100006E0000001AD2FE69C3
:104010003030312E31300000000000000000000080
:10402000454C45434F4E00000000000000000000DA
:1040300000000000004000081B8A01080042000840
:10404000004200081B8A0108FFFFFFFF000000007C
:104050000000000000000000000000000000000060
:104060000000000000000000000000000000000050
:104070000000000000000000000000000000000040
:104080000000000000000000000000000000000030
:104090000000000000000000000000000000000020
:1040A0000000000000000000000000000000000010
:1040B0000000000000000000000000000000000000
:1040C00000000000000000000000000000000000F0
:1040D00000000000000000000000000000000000E0
:1040E00000000000000000000000000000000000D0
:1040F00000000000000000000000000000000000C0
:1041000000000000000000000000000000000000AF
:10411000000000000000000000000000000000009F
:10412000000000000000000000000000000000008F
:10413000000000000000000000000000000000007F
:10414000000000000000000000000000000000006F
:10415000000000000000000000000000000000005F
:10416000000000000000000000000000000000004F
:10417000000000000000000000000000000000003F
:10418000000000000000000000000000000000002F
:10419000000000000000000000000000000000001F
:1041A000000000000000000000000000000000000F
:1041B00000000000000000000000000000000000FF
:1041C00000000000000000000000000000000000EF
:1041D00000000000000000000000000000000000DF
:1041E00000000000000000000000000000000000CF
:1041F00000000000000000000000000000000000BF
:1042000000C000208DDF0008CDDB0008D5DB0008F2
:10421000DDDB0008E5DB0008EDDB00080000000046
:10422000000000000000000000000000F5DB0008B6
:1042300003DC00080000000011DC00081FDC00089F
:10424000DDDF0008DDDF0008DDDF0008DDDF00085E
:10425000DDDF0008DDDF00082FDC0008DDDF0008FF
:104260003DDC00084BDC0008DDDF000859DC0008FD
:104270006DDC000881DC000855AF000891AF000834
:1042800095DC0008DDDF0008A9DC0008BDDC0008C3
:10429000D1DC0008E5DC0008DDDF0008DDDF000818
:1042A000DDDF0008DDDF0008DDDF0008DDDF0008FE
:1042B000DDDF00080000000000000000DDDF000876
:1042C000DDDF0008DDDF0008DDDF0008F9DC0008C5
:1042D000DDDF00088DAE00080DDD000821DD0008DF
:1042E000DDDF0008DDDF0008000000000000000046
:1042F00000000000000000000000000000000000BE
:1043000000000000DDDF000800000000DDDF000825
:10431000000000000000000035DD0008DDDF0008BF
:10432000DDDF0008DDDF0008DDDF00084DDD00080F
:10433000DDDF0008000000000000000000000000B9
:10434000DDDF0008DDDF0008DDDF00080000000021
:1043500061DD000875DD000889DD0008DDDF00088B
:10436000DDDF0008DDDF0008DDDF00080000000001
:10437000DDDF0008DDDF00080000000000000000B5
:10438000DDDF0008DDDF0008DDDF000800000000E1
:1043900010B5054C237833B9044B13B10448AFF37F
:1043A00000800123237010BD1802002000000000CF
:1043B000DC84010808B5034B1BB103490348AFF384
:1043C000008008BD000000001C020020DC84010801
:1043D00010F8012B11F8013B012A28BF9A42F7D0AF
:1043E000D01A7047034613F8012B002AFBD1181A84
:1043F00001387047000000000000000000000000CD
:1044000001F0FF01102A2BDB10F0070F08D010F885
:10441000013B013A8B422DD010F0070F42B3F6D189
:10442000F0B441EA012141EA014122F007047FF0A2
:1044300000070023F0E80256083C85EA010586EAF9
:10444000010685FA47F5A3FA87F586FA47F6A5FA35
:1044500087F68EB9EED1F0BC01F0FF0102F0070241
:1044600032B110F8013B013A83EA010313B1F8D1EC
:104470000020704701387047002D06BF35460338CD
:10448000073815F0010F07D1013015F4807F02BF06
:10449000013015F4C03F0130F0BC0138704700BF57
:1044A00081F0004102E000BF83F0004330B54FEAE5
:1044B00041044FEA430594EA050F08BF90EA020F52
:1044C0001FBF54EA000C55EA020C7FEA645C7FEAE5
:1044D000655C00F0E2804FEA5454D4EB5555B8BF08
:1044E0006D420CDD2C4480EA020281EA030382EA79
:1044F000000083EA010180EA020281EA0303362D0B
:1045000088BF30BD11F0004F4FEA01314FF4801CDD
:104510004CEA113102D0404261EB410113F0004FEF
:104520004FEA03334CEA133302D0524263EB4303A6
:1045300094EA050F00F0A780A4F10104D5F1200E44
:104540000DDB02FA0EFC22FA05F2801841F100019F
:1045500003FA0EF2801843FA05F359410EE0A5F173
:1045600020050EF1200E012A03FA0EFC28BF4CF0A4
:10457000020C43FA05F3C01851EBE37101F000455A
:1045800007D54FF0000EDCF1000C7EEB00006EEB67
:104590000101B1F5801F1BD3B1F5001F0CD34908F1
:1045A0005FEA30004FEA3C0C04F101044FEA445248
:1045B00012F5800F80F09A80BCF1004F08BF5FEACF
:1045C000500C50F1000041EB045141EA050130BDAF
:1045D0005FEA4C0C404141EB0101013C28BFB1F5C1
:1045E000801FE9D291F0000F04BF01460020B1FA0C
:1045F00081F308BF2033A3F10B03B3F120020CDADF
:104600000C3208DD02F1140CC2F10C0201FA0CF0BC
:1046100021FA02F10CE002F11402D8BFC2F1200C21
:1046200001FA02F120FA0CFCDCBF41EA0C019040D7
:10463000E41AA2BF01EB0451294330BD6FEA040420
:104640001F3C1CDA0C340EDC04F11404C4F120020B
:1046500020FA04F001FA02F340EA030021FA04F31D
:1046600045EA030130BDC4F10C04C4F1200220FA74
:1046700002F001FA04F340EA0300294630BD21FAB2
:1046800004F0294630BD94F0000F83F4801306BF78
:1046900081F480110134013D4EE77FEA645C18BF6C
:1046A0007FEA655C29D094EA050F08BF90EA020F03
:1046B00005D054EA000C04BF1946104630BD91EAFB
:1046C000030F1EBF0021002030BD5FEA545C05D1FE
:1046D0004000494128BF41F0004130BD14F580043D
:1046E0003CBF01F5801130BD01F0004545F0FE41B1
:1046F00041F470014FF0000030BD7FEA645C1ABFE6
:10470000194610467FEA655C1CBF0B46024650EA1C
:10471000013406BF52EA033591EA030F41F4002148
:1047200030BD00BF90F0000F04BF0021704730B5CE
:104730004FF4806404F132044FF000054FF00001A3
:1047400050E700BF90F0000F04BF0021704730B564
:104750004FF4806404F1320410F0004548BF404239
:104760004FF000013EE700BF42004FEAE2014FEA8E
:1047700031014FEA02701FBF12F07F4393F07F4F69
:1047800081F06051704732F07F4208BF704793F06C
:104790007F4F04BF41F40021704730B54FF460747F
:1047A00001F0004521F000411CE700BF50EA010282
:1047B00008BF704730B54FF000050AE050EA01022B
:1047C00008BF704730B511F0004502D5404261EB9B
:1047D00041014FF4806404F132045FEA915C3FF4DC
:1047E000D8AE4FF003025FEADC0C18BF03325FEA79
:1047F000DC0C18BF033202EBDC02C2F1200300FA2A
:1048000003FC20FA02F001FA03FE40EA0E0021FA4E
:1048100002F11444BDE600BF70B54FF0FF0C4CF43C
:10482000E06C1CEA11541DBF1CEA135594EA0C0FEE
:1048300095EA0C0F00F0DEF82C4481EA030621EA29
:104840004C5123EA4C5350EA013518BF52EA033564
:1048500041F4801143F4801338D0A0FB02CE4FF016
:104860000005E1FB02E506F00042E0FB03E54FF046
:104870000006E1FB03569CF0000F18BF4EF0010E3E
:10488000A4F1FF04B6F5007F64F5407404D25FEA3A
:104890004E0E6D4146EB060642EAC62141EA5551ED
:1048A0004FEAC52040EA5E504FEACE2EB4F1FD0C2F
:1048B00088BFBCF5E06F1ED8BEF1004F08BF5FEAAD
:1048C000500E50F1000041EB045170BD06F000465F
:1048D00046EA010140EA020081EA0301B4EB5C040C
:1048E000C2BFD4EB0C0541EA045170BD41F4801104
:1048F0004FF0000E013C00F3AB8014F1360FDEBF29
:10490000002001F0004170BDC4F10004203C35DA04
:104910000C341BDC04F11404C4F1200500FA05F387
:1049200020FA04F001FA05F240EA020001F0004228
:1049300021F0004110EBD37021FA04F642EB06019E
:104940005EEA430E08BF20EAD37070BDC4F10C04C8
:10495000C4F1200500FA04F320FA05F001FA04F28C
:1049600040EA020001F0004110EBD37041F1000178
:104970005EEA430E08BF20EAD37070BDC4F1200583
:1049800000FA05F24EEA020E20FA04F301FA05F2EB
:1049900043EA020321FA04F001F0004121FA04F293
:1049A00020EA020000EBD3705EEA430E08BF20EA63
:1049B000D37070BD94F0000F0FD101F0004640009D
:1049C00041EB010111F4801F08BF013CF7D041EA1F
:1049D000060195F0000F18BF704703F00046520023
:1049E00043EB030313F4801F08BF013DF7D043EAF4
:1049F0000603704794EA0C0F0CEA135518BF95EAAA
:104A00000C0F0CD050EA410618BF52EA4306D1D130
:104A100081EA030101F000414FF0000070BD50EA4F
:104A2000410606BF1046194652EA430619D094EAD9
:104A30000C0F02D150EA013613D195EA0C0F05D1C3
:104A400052EA03361CBF104619460AD181EA030117
:104A500001F0004141F0FE4141F470014FF00000CF
:104A600070BD41F0FE4141F4780170BD70B54FF06A
:104A7000FF0C4CF4E06C1CEA11541DBF1CEA1355EA
:104A800094EA0C0F95EA0C0F00F0A7F8A4EB0504CC
:104A900081EA030E52EA03354FEA013100F08880C3
:104AA0004FEA03334FF0805545EA131343EA12638C
:104AB0004FEA022245EA111545EA10654FEA002641
:104AC0000EF000419D4208BF964244F1FD0404F5FA
:104AD000407402D25B084FEA3202B61A65EB030556
:104AE0005B084FEA32024FF480104FF4002CB6EB13
:104AF000020E75EB030E22BFB61A754640EA0C0093
:104B00005B084FEA3202B6EB020E75EB030E22BFD2
:104B1000B61A754640EA5C005B084FEA3202B6EB13
:104B2000020E75EB030E22BFB61A754640EA9C00D2
:104B30005B084FEA3202B6EB020E75EB030E22BFA2
:104B4000B61A754640EADC0055EA060E18D04FEA60
:104B5000051545EA16754FEA06164FEAC30343EA00
:104B600052734FEAC2025FEA1C1CC0D111F4801FCD
:104B70000BD141EA00014FF000004FF0004CB6E7C6
:104B800011F4801F04BF01430020B4F1FD0C88BF65
:104B9000BCF5E06F3FF6AFAEB5EB030C04BFB6EB70
:104BA000020C5FEA500C50F1000041EB045170BD63
:104BB0000EF0004E4EEA113114EB5C04C2BFD4EB90
:104BC0000C0541EA045170BD41F480114FF0000E14
:104BD000013C90E645EA060E8DE60CEA135594EA90
:104BE0000C0F08BF95EA0C0F3FF43BAF94EA0C0F93
:104BF0000AD150EA01347FF434AF95EA0C0F7FF408
:104C000025AF104619462CE795EA0C0F06D152EA5B
:104C100003353FF4FDAE1046194622E750EA41063F
:104C200018BF52EA43067FF4C5AE50EA41047FF450
:104C30000DAF52EA43057FF4EBAE12E74FF0FF3CB5
:104C400006E000BF4FF0010C02E000BF4FF0010C86
:104C50004DF804CD4FEA410C7FEA6C5C4FEA430CFF
:104C600018BF7FEA6C5C1BD001B050EA410C0CBF4E
:104C700052EA430C91EA030F02BF90EA020F0020B0
:104C8000704710F1000F91EA030F58BF994208BF17
:104C900090422CBFD8176FEAE37040F001007047D4
:104CA0004FEA410C7FEA6C5C02D150EA013C07D12B
:104CB0004FEA430C7FEA6C5CD6D152EA033CD3D076
:104CC0005DF8040B704700BF8446104662468C4670
:104CD0001946634600E000BF01B5FFF7B7FF0028A3
:104CE00048BF10F1000F01BD4DF808EDFFF7F4FFCC
:104CF0000CBF012000205DF808FB00BF4DF808ED57
:104D0000FFF7EAFF34BF012000205DF808FB00BF79
:104D10004DF808EDFFF7E0FF94BF012000205DF89B
:104D200008FB00BF4DF808EDFFF7CEFF94BF012050
:104D300000205DF808FB00BF4DF808EDFFF7C4FF49
:104D400034BF012000205DF808FB00BF4FEA41029C
:104D500012F5001215D211D56FF47873B3EB6252CD
:104D600012D94FEAC12343F0004343EA505311F0F4
:104D7000004F23FA02F018BF404270474FF0000086
:104D8000704750EA013005D111F0004008BF6FF0C4
:104D9000004070474FF00000704700BF4FEA4102EB
:104DA000B2F1E04324BFB3F5001CDCF1FE5C0DD989
:104DB00001F0004C4FEAC0024CEA5070B2F1004FD3
:104DC00040EB830008BF20F00100704711F0804FD6
:104DD00021D113F13872BCBF01F00040704741F49B
:104DE00080114FEA5252C2F11802C2F1200C10FA9F
:104DF0000CF320FA02F018BF40F001004FEAC12383
:104E00004FEAD32303FA0CFC40EA0C0023FA02F326
:104E10004FEA4303CCE77FEA625307D150EA0133FC
:104E20001EBF4FF0FE4040F44000704701F00040CC
:104E300040F0FE4040F40000704700BF80F00040AA
:104E400002E000BF81F0004142001FBF5FEA410362
:104E500092EA030F7FEA226C7FEA236C6AD04FEA62
:104E60001262D2EB1363C1BFD218414048404140A7
:104E7000B8BF5B42192B88BF704710F0004F40F459
:104E8000000020F07F4018BF404211F0004F41F475
:104E9000000121F07F4118BF494292EA030F3FD041
:104EA000A2F1010241FA03FC10EB0C00C3F1200354
:104EB00001FA03F100F0004302D5494260EB4000E3
:104EC000B0F5000F13D3B0F1807F06D340084FEA4E
:104ED000310102F10102FE2A51D2B1F1004F40EB43
:104EE000C25008BF20F0010040EA030070474900AB
:104EF00040EB0000013A28BFB0F5000FEDD2B0FA48
:104F000080FCACF1080CB2EB0C0200FA0CF0AABF6A
:104F100000EBC25052421843BCBFD0401843704708
:104F200092F0000F81F4000106BF80F4000001320E
:104F3000013BB5E74FEA41037FEA226C18BF7FEAE5
:104F4000236C21D092EA030F04D092F0000F08BF27
:104F50000846704790EA010F1CBF0020704712F00E
:104F60007F4F04D1400028BF40F00040704712F14D
:104F700000723CBF00F50000704700F0004343F0B2
:104F8000FE4040F4000070477FEA226216BF0846E8
:104F90007FEA23630146420206BF5FEA412390EAAB
:104FA000010F40F4800070474FF0000304E000BFA1
:104FB00010F0004348BF40425FEA000C08BF704752
:104FC00043F0964301464FF000001CE050EA010216
:104FD00008BF70474FF000030AE000BF50EA01022B
:104FE00008BF704711F0004302D5404261EB410118
:104FF0005FEA010C02BF84460146002043F0B6433D
:1050000008BFA3F18053A3F50003BCFA8CF2083A61
:10501000A3EBC25310DB01FA02FC634400FA02FC6A
:10502000C2F12002BCF1004F20FA02F243EB020071
:1050300008BF20F00100704702F1200201FA02FCD3
:10504000C2F1200250EA4C0021FA02F243EB0200C6
:1050500008BF20EADC7070477BB972B90029BEBF77
:1050600000204FF0004106E008BF00281CBF6FF091
:1050700000414FF0FF3000F011BAADF1080C6DE9BE
:1050800004CE002909DB002B1ADB00F08BF8DDF8D9
:1050900004E0DDE9022304B07047404261EB4101C6
:1050A000002B1BDB00F07EF8DDF804E0DDE90223D5
:1050B00004B0404261EB4101524263EB430370474D
:1050C000524263EB430300F06DF8DDF804E0DDE9E4
:1050D000022304B0404261EB41017047524263EB4E
:1050E000430300F05FF8DDF804E0DDE9022304B0DB
:1050F000524263EB4303704753B94AB9002908BFD2
:1051000000281CBF4FF0FF314FF0FF3000F0C6B950
:10511000ADF1080C6DE904CE00F044F8DDF804E0D0
:10512000DDE9022304B07047D0B5FFF71DFB0C4B3F
:10513000002206460F46FFF76FFB00F0B1F9044668
:10514000FFF7F0FA074B0022FFF766FB02460B461B
:1051500030463946FFF7A8F900F0A2F92146D0BD44
:105160000000F03D0000F041D0B50C4B0022064697
:105170000F46FFF751FB00F093F90446FFF7D2FA10
:10518000074B0022FFF748FB02460B4630463946E4
:10519000FFF78AF900F084F92146D0BD0000F03D08
:1051A0000000F0412DE9F047089D8E4604468846F0
:1051B000002B4AD18A42174662D9B2FA82F64EB122
:1051C000C6F1200301FA06F820FA03F3B74043EAD8
:1051D0000808B4404FEA174E1FFA87FCB8FBFEF1EF
:1051E000230C0EFB118843EA084301FB0CF29A42A0
:1051F00009D9FB1801F1FF3080F0EA809A4240F2B1
:10520000E78002393B449A1AA3B2B2FBFEF00EFBD0
:10521000102243EA024300FB0CFC9C4509D9FB1811
:1052200000F1FF3280F0D6809C4540F2D3803B44B1
:10523000023840EA0140A3EB0C0300211DB1F3400A
:105240000022C5E90032BDE8F0878B4205D90DB1D7
:10525000C5E9000100210846F5E7B3FA83F100290A
:1052600046D1734502D3824200F20581841A6EEB67
:10527000030201209046002DE5D0C5E90048E2E791
:10528000002A00F09080B2FA82F6002E40F0A4804E
:105290008A1A030C4FEA174E80B2BCB20121B2FB4E
:1052A000FEFC0EFB1C2243EA024304FB0CF29A4272
:1052B00007D9FB180CF1FF3802D29A4200F2E080C5
:1052C000C4469B1AB3FBFEF20EFB123340EA0343C3
:1052D00002FB04F49C4207D9FB1802F1FF3002D212
:1052E0009C4200F2CA8002461B1B42EA0C40A5E722
:1052F000C1F120068B4022FA06F71F430EFA01F493
:1053000020FA06F32EFA06FE4FEA1749234300FA65
:1053100001F81FFA87FCBEFBF9F01C0C09FB10EE2C
:1053200044EA0E4400FB0CFEA64502FA01F209D93C
:105330003C1900F1FF3A80F09C80A64540F299802C
:1053400002383C44A4EB0E041FFA83FEB4FBF9F3CD
:1053500009FB13444EEA044403FB0CFCA44508D9A2
:105360003C1903F1FF3E80F08280A4457FD9023BC7
:105370003C4443EA0040A4EB0C04A0FB02EC64456F
:105380007346E14662D35FD05DB1B8EB030264EBD4
:10539000090404FA06F622FA01F31E43CC40C5E9DB
:1053A000006400214FE7B1FBF2FC010C41EA0E4121
:1053B00080B240EA01423B4638463C46B846BE46CB
:1053C0002026B1FBF7F1A2EB080241EA0C4166E7A7
:1053D000014618E710462CE7C6F120022EFA02F328
:1053E000B740B14020FA02F24FEA174E0A43B3FB2E
:1053F000FEF8BCB20EFB1833110C41EA034108FB66
:1054000004F9B04089454FEA104380B23ED979187B
:1054100008F1FF3C01D289451FD8A1EB0901B1FB7E
:10542000FEF909FB04F80EFB191192B242EA01429F
:10543000424529D2BA1809F1FF31C4D24245C2D23D
:10544000A9F102013A44BEE7F0459DD2BEEB02034A
:105450006CEB070C0138E14696E7A7EB09094944D4
:10546000A8F1020CB1FBFEF909FB04F8DBE7734677
:105470007FE7504666E70846FDE63B44023A33E7DD
:10548000ACF1020C3B441CE749469CE7A1EB090147
:10549000C446B1FBFEF909FB04F8C4E7704700BF3E
:1054A0004A0011D212F5001211D20DD56FF47873A3
:1054B000B3EB62520ED44FEAC12343F0004343EAF8
:1054C000505323FA02F070474FF00000704750EA43
:1054D000013002D14FF0FF3070474FF000007047AD
:1054E00080B584B000AFF860B9601346FB710E4A16
:1054F000FB6813600D4ABB6813600D4AFB7913709B
:10550000094B1B687F2118460AF048FA084B1B78A4
:105510005B00184610F034FE03461A46054B1A602D
:1055200000BF1037BD4680BD340200203802002085
:105530003C0200204002002080B500AF074B1B68F2
:10554000002B08D0064B1B68044A1168054A1278E4
:10555000184609F04DF900BF80BD00BF4002002091
:10556000340200203C02002080B483B000AF034628
:10557000FB710B4B1B78FA799A420AD2094B1B68D4
:10558000002B06D0074B1A68FB795B0013441B887D
:1055900000E0002318460C37BD465DF8047B7047D9
:1055A0003C0200204002002080B582B000AF78604D
:1055B000044B1B68184609F09FF900BF0837BD4629
:1055C00080BD00BF3402002080B584B000AF786099
:1055D0007B681B68002B21D07B68012283F8CF20D9
:1055E0007B68002283F8CD207B68002283F8CE20E0
:1055F0007B6800221A717B6818687B6890333B22B5
:10560000194610F061FD0346FB73FB7B002B05D0B0
:105610007B681B6818460FF07FFEB86000BF10372C
:10562000BD4680BD80B586B000AF786000237B6149
:105630007B6893F8CD30002B2CD07B6893F8CE306C
:10564000382B23D97B6893F8CE303A2B03D17B6873
:1056500090337B6107E07B6893F8CE303B2B02D11F
:105660007B6891337B617B69002B0FD0786900F0F8
:105670003EF80346012B09D17968786900F05CF89F
:10568000786800F099F97B6801221A717B68002222
:1056900083F8CD207B6818687B6890333B221946DD
:1056A00010F012FD0346FB74FB7C002B05D07B68D9
:1056B0001B6818460FF030FEF86000BF1837BD4673
:1056C00080BD80B483B000AF78607B681B79002B0D
:1056D00001D1012305E07B6893F8483003F0010312
:1056E000DBB218460C37BD465DF8047B704780B4CA
:1056F00085B000AF78600023BB730023FB7309E023
:10570000FB7B7A6813441A78BB7B1344BB73FB7B27
:105710000133FB73FB7B382BF2D97B6839331B7861
:10572000BA7B9A4201D1012300E0002318461437C6
:10573000BD465DF8047B704780B483B000AF7860ED
:1057400039607B681B781A047B6801331B781B0265
:1057500013437A68023212781A4313469B001344AB
:105760001A463B685A627B6804331B78582B18D062
:105770007B6804331B781B027A68053212781A435F
:1057800013465B019B1A9B001A443B689A627B6834
:1057900004331B782D2B04D13B689B6A5A423B682B
:1057A0009A627B6806331B78582B18D07B680733C6
:1057B0001B781B027A68083212781A4313465B0181
:1057C0009B1A9B001A443B68DA627B6806331B789D
:1057D0002D2B04D13B68DB6A5A423B68DA627B6856
:1057E00009331B78582B18D07B680A331B781B02AF
:1057F0007A680B3212781A4313465B019B1A9B009E
:105800001A443B681A637B6809331B782D2B04D13B
:105810003B681B6B5A423B681A637B6893F82820ED
:105820003B6883F849207B681F331B781A047B6828
:1058300020331B781B0213437A68213212781343FA
:105840001A463B685A637B6825331B781A047B68C9
:1058500026331B781B0213437A68273212781343CE
:105860001A463B689A637B6822331B781A047B686C
:1058700023331B781B0213437A68243212781343B4
:105880001A463B68DA637B689A7F3B6883F8482056
:105890007B6829331B781A047B682A331B781B0228
:1058A00013437A682B32127813431A463B681A6402
:1058B0007B682C331B781A047B682D331B781B0202
:1058C00013437A682E32127813431A463B685A649F
:1058D0007B681A331B781B027A681B3212781343D9
:1058E00099B27B6818331B785A1E0B4619468900FB
:1058F0000B4499B23B68143223F822107B681C33A6
:105900001B781BB21B021AB27B681D331B781BB2BB
:1059100013431BB29BB2A3F58A739AB27B68183308
:105920001B78013B11B23A6814339B0013440A46BA
:105930005A807B685A7E3B6883F820207B6831332D
:105940001B781B027A68323212781343642202FBFE
:1059500003F31A463B681A617B6833331B781B02DA
:105960007A68343212781A4313469B0013441A465D
:105970003B685A617B6835331B781B027A68363284
:1059800012781A4313469B0013441A463B689A61E7
:105990007B6837331B781B027A68383212781A43D7
:1059A00013469B0013441A463B68DA6100BF0C376C
:1059B000BD465DF8047B704780B485B000AF786069
:1059C0007B680022A3F84A207B68B3F850207B68EC
:1059D000A3F84C200023FB7326E0FA7B7B6814328B
:1059E00033F822207B68B3F84A309A4207D9FA7B11
:1059F0007B68143233F822207B68A3F84A20FA7BB4
:105A00007B68143233F822207B68B3F84C309A421A
:105A100007D2FA7B7B68143233F822207B68A3F824
:105A20004C20FB7B0133FB73FB7B0F2BD5D900BFD5
:105A300000BF1437BD465DF8047B704780B485B065
:105A400000AFF8607A603B600B467B81FB681A68A8
:105A50007B681B681B689A4208D17B68012283F827
:105A6000CD207B89DAB27B6883F8CE20FB681A6888
:105A70003B681B681B689A4208D13B68012283F887
:105A8000CD207B89DAB23B6883F8CE2000BF143783
:105A9000BD465DF8047B704780B483B000AF034619
:105AA000FB71044AFB79137000BF0C37BD465DF8EB
:105AB000047B7047F406002080B400AF034B1B78D2
:105AC0001846BD465DF8047B704700BFF406002011
:105AD00080B582B000AF0346FB7100F085FC024642
:105AE000FB79DB0013449B79052B01D1012300E0F6
:105AF000002318460837BD4680BD80B582B000AF90
:105B00000023FB800023BB8016E0BB88DBB2184675
:105B1000FFF7DEFF0346012B08D1B7F9043001225D
:105B200002FA03F31AB2FB881343FB80B7F904307F
:105B30009BB201339BB2BB80B7F90430072BE4DD85
:105B4000B7F9063018460837BD4680BD80B582B02B
:105B500000AF7860786800F027FD034618460837E4
:105B6000BD4680BD80B582B000AF00237B6017E0EA
:105B700034497A6813465B0013449B000B44063398
:105B80001B880A3398B22F497A6813465B00134486
:105B90009B000B44063302461A807B6801337B600E
:105BA0007B68632BE4DD00237B6042E025497A6853
:105BB00013465B0013449B000B441B78012B35D12B
:105BC00020497A6813465B0013449B000B4404335E
:105BD0001B88002B2AD01B497A6813465B001344AC
:105BE0009B000B440633198816487A6813465B00FD
:105BF00013449B00034404331B88994216D3114974
:105C00007A6813465B0013449B000B4402331B88E5
:105C1000184600F0D9F80B497A6813465B00134424
:105C20009B000B44063300221A8006E07B68013398
:105C30007B607B68632BB9DD00BF00BF0837BD46C2
:105C400080BD00BF4402002080B582B000AF034693
:105C50003960FB8013467B71074B1B781A46FB8823
:105C600013449BB27A793968184600F0B3FC00BF40
:105C70000837BD4680BD00BFF406002080B485B063
:105C800000AF03460A46FB801346BB800023FB603F
:105C900038E03A49FA6813465B0013449B000B4412
:105CA00002331B88FA889A4229D1BB88002B13D073
:105CB0003249FA6813465B0013449B000B440433DB
:105CC000BA881A802D49FA6813465B0013449B007A
:105CD0000B4401221A704CE02849FA6813465B0015
:105CE00013449B000B44043300221A802349FA68B2
:105CF00013465B0013449B000B4400221A70FB68A0
:105D00000133FB60FB68632BC3DD0023FB602DE0E8
:105D10001A49FA6813465B0013449B000B441B7836
:105D2000002B20D1BB88002B1DD01449FA681346E4
:105D30005B0013449B000B440233FA881A800F491E
:105D4000FA6813465B0013449B000B440433BA8883
:105D50001A800A49FA6813465B0013449B000B44FF
:105D600001221A7005E0FB680133FB60FB68632BBE
:105D7000CEDD1437BD465DF8047B70474402002039
:105D800080B584B000AF03463960FB7107F10803AA
:105D900008223021184610F0B8FB0A4B1B783B72E2
:105DA000FB797B723B68C7F80A3007F108030822C9
:105DB00019464FF4AC60FFF747FF00BF1037BD46F0
:105DC00080BD00BFF406002080B586B000AF03465A
:105DD000FB8000237B820023FB8207F11202FB88F9
:105DE0001146184601F07AFF0346BB827B8A012BDD
:105DF00014BF01230023DBB2FB82FB881B0A9BB28A
:105E0000DBB23B72FB88DBB27B72B7F914301B123A
:105E10001BB2DBB2BB72BB8ADBB2FB72FB8A1B0A12
:105E20009BB2DBB23B73FB8ADBB27B730023BB7399
:105E30000023FB73074B1B7803F588739BB207F1B4
:105E400008010822184600F0C5FB00BF1837BD4600
:105E500080BD00BFF406002080B582B000AF0346CD
:105E6000FB710C4AFB791370FA7913469B001344BB
:105E70009B00184610F084F903461A46064B1A6038
:105E8000054B1B68002B01D106F096FF00BF0837B9
:105E9000BD4680BDFC060020F806002080B483B01B
:105EA00000AF03463960FB711346BB80234B1B7860
:105EB000FA799A423BD2224B1968FA7913469B0031
:105EC00013449B000B44FA791A701D4B1968FA7938
:105ED00013469B0013449B000B443A68DA60184B4E
:105EE0001968FA7913469B0013449B000B44BA8847
:105EF0001A82134B1968FA7913469B0013449B00CE
:105F00000B4400229A800E4B1968FA7913469B00C5
:105F100013449B000B4400225A80094B1968FA79FC
:105F200013469B0013449B000B4400229A6000BF61
:105F30000C37BD465DF8047B704700BFFC060020AF
:105F4000F806002080B584B000AF08F0B1F8B86062
:105F50000023FB736DE03C4B1968FA7B13469B00F2
:105F600013449B000B449B68BA68D31A7B607B6820
:105F7000364A93420AD9344B1968FA7B13469B0080
:105F800013449B000B4400229A801FE07B6842F27E
:105F9000107293421AD92E4A7B68B2FBF3F37B80CE
:105FA000294B1968FA7B13469B0013449B000B4452
:105FB0009B887A889A4209D2234B1968FA7B134648
:105FC0009B0013449B000B447A889A801E4B1968EF
:105FD000FA7B13469B0013449B000B44188A1A4B10
:105FE0001968FA7B13469B0013449B000B445B88A3
:105FF0001BB20122194601F0A5FE134B1968FA7B6A
:1060000013469B0013449B000B441B8A0A3398B22F
:106010000D4B1968FA7B13469B0013449B000B44FD
:106020009B881BB20122194601F08CFEFB7B0133D9
:10603000FB73084B1B78FA7B9A428CD300BF00BFDE
:106040001037BD4680BD00BFF8060020407E050029
:1060500080EE3600FC06002080B483B000AF03461B
:10606000FB710B4B1B78FA799A4209D2094B1968DC
:10607000FA7913469B0013449B000B449B8800E075
:10608000002318460C37BD465DF8047B704700BFFF
:10609000FC060020F806002080B483B000AF002387
:1060A000FB710CE00C4B1968FA7913469B00134402
:1060B0009B000B4400225A80FB790133FB71074B94
:1060C0001B78FA799A42EDD300BF00BF0C37BD466A
:1060D0005DF8047B704700BFF8060020FC06002036
:1060E00080B586B000AF0346FB8007F0E1FF386162
:1060F0000023FB7541E0264B1968FA7D13469B008F
:1061000013449B000B44DA68FB889A4232D1204B3F
:106110001968FA7D13469B0013449B000B445A8870
:10612000013292B25A801A4B1968FA7D13469B00CD
:1061300013449B000B449B683A69D31AFB60FB68CD
:10614000002B0DD0134AFB68B2FBF3F0104B19681B
:10615000FA7D13469B0013449B000B4482B29A8045
:106160000B4B1968FA7D13469B0013449B000B44AC
:106170003A699A60FB7D0133FB75074B1B78FA7D0A
:106180009A42B8D300BF00BF1837BD4680BD00BFDC
:10619000F806002080EE3600FC06002080B588B0AE
:1061A00000AF254BD3F89430FB6100237B6007F1EF
:1061B000140308220021184610F0A7F91E4BD3F84B
:1061C00094301D4A43F40003C2F8943004233B7515
:1061D00000237B75FB691B0EDBB2BB7505211748DD
:1061E0000CF03BFD0346DBB2FB75062113480CF0B7
:1061F00034FD03467B607B68BB61002205210F48AC
:106200000CF012FD002206210C480CF00DFD0623B7
:106210003B7220237B7207F10A0207F1140303CBC0
:106220001060516007F108030A21184604F08CFF42
:1062300000BF2037BD4680BD00100240302700203F
:1062400080B400AFBFF34F8F00BF064BDB6803F491
:10625000E0620449044B1343CB60BFF34F8F00BF90
:1062600000BFFDE700ED00E00400FA0580B588B04E
:1062700004AF78600B46FB700023BB73C821242059
:1062800001F080FD0346494AD3605021242001F0EB
:1062900079FD0346454A13616421202001F072FD17
:1062A0000346424A5361414BDB68002B02D03F4B0F
:1062B0001B69002B3D4A7B6893603C4AFB78137056
:1062C0003A4B41F288329A80384B00225A80374B41
:1062D00001229A62354B1B7803F5E0631A46334B73
:1062E0009A61324B0022DA61304B00225A622F4B06
:1062F00000221A620023FB7314E0FB7B2C4ADB00B4
:10630000134442F210729A80FB7B294ADB0013444B
:10631000FF229A71FB7B2649FA7B01F83320FB7B35
:106320000133FB73FB7B072BE7D9204B1B78184607
:106330001E4B99791E4AC30013440A469A711B4B9F
:106340009868BB7B0133DAB20023029300230193E8
:1063500040F20F7300934FF4E063002100F0BCF9AA
:10636000124B9868BB7B0233DAB2002302930023FE
:10637000019340F2FF6300930023012100F0ACF988
:106380000A4B9B6848F61201184609F08FFF074B2D
:106390009B681B681A68054B9B681B6822F4803257
:1063A0001A6000BF1037BD4680BD00BF0007002047
:1063B0003C07002080B500AF094B9B68184609F0E8
:1063C00044FD074B05229A71054B1B781846044B78
:1063D0009979044AC30013440A469A7100BF80BDEC
:1063E000000700203C07002080B400AF024B184695
:1063F000BD465DF8047B70473C070020B0B598B0FF
:1064000004AF40E07B6AB3F5E06F1AD37B6AB3F563
:10641000E26F16D27B6A87F84B3097F84B30072B28
:106420000FD897F84B3097F84010494ADB001344D7
:106430000A469A7197F84B30454ADB001344002214
:106440005A807B6A002B1ED197F84120414B1B7864
:106450009A4218D197F84030822B0FD0822B12DC51
:10646000812B09D0812B0EDC802B09D0802B0ADCFC
:10647000012B07D0022B06E0FFF7E2FEFFF7E0FE5C
:1064800000BF00E000BF334BDB6807F12402114678
:10649000184601F019FD0346002BB3D00023FB641E
:1064A0002EE02B4AFB6CDB0013445B880A3399B265
:1064B000274AFB6CDB0013440A465A80244AFB6CD3
:1064C000DB0013445A882249FB6CDB000B449B8899
:1064D0009A4212D91E4AFB6CDB0013449B79FF2BB6
:1064E0000BD01B4AFB6CDB00134400225A80184A75
:1064F000FB6CDB001344FF229A71FB6C0133FB64DD
:10650000FB6C072BCDDD134B5B880A339AB2114B22
:106510005A80104B5A880F4B9B889A4213D30D4BCD
:1065200000225A800B4B9A790A4B83F83020094D90
:106530006C4605F128030FCB84E80F0005F1180322
:106540000FCB00F071F800BF5037BD46B0BD00BFA3
:106550003C0700200007002090B58BB000AF114B26
:106560005B6907F108021146184601F054FC034626
:10657000002B13D10B4B98683C1D07F1080303F166
:10658000180207F10801234609F0A3FC0346002B7B
:1065900004D1044B5B69184601F06AFC00BF2C373C
:1065A000BD4690BD0007002080B582B000AF786086
:1065B000074B1B697968184601F086FC0346002BDF
:1065C00001D1012300E0002318460837BD4680BDF5
:1065D0000007002090B58FB004AF03463960FB8000
:1065E00013467B717B79BB61FB88BB600023FB603A
:1065F00000237B6100233B617A7907F1080318339C
:106600003968184610F00DFC6C4607F118030FCBE3
:1066100084E80F0007F108030FCB00F005F80346EC
:1066200018462C37BD4690BD84B080B500AF07F149
:10663000080C8CE80F00074B5B6907F1080118464E
:1066400001F07FFC00BF1846BD46BDE8804004B0A5
:10665000704700BF0007002080B58CB000AF7860A5
:1066600007F10C031C3307F10C020021786809F0D4
:106670000BFD084B9B687A689A4207D1054BDB6893
:1066800007F10C021146184601F05BFC00BF3037E1
:10669000BD4680BD0007002080B58CB000AF78609B
:1066A00007F10C031C3307F10C020121786809F093
:1066B000EBFC084B9B687A689A4207D1054B1B6933
:1066C00007F10C021146184601F03BFC00BF3037C1
:1066D000BD4680BD0007002080B58CB000AF78605B
:1066E000084611461A460346FB700B46BB7013461C
:1066F0003B800E23FB62BB78FB6100233B620023DF
:106700007B62FB78BB61BB8F5B01BB603B885B013D
:10671000FB60B7F84020BB8F1146184600F016F812
:1067200003463B613A8F3B881146184600F00EF84D
:1067300003467B610123BB6207F1080319467868B1
:1067400009F0B9FA00BF3037BD4680BD80B485B0CE
:1067500000AF03460A46FB801346BB800023FB8143
:1067600000237B7300233B7300237B7322E0FA88B2
:10677000BB8853409BB21BB2002B09DB3B7B002B39
:1067800006D1FB885B00FB80BB885B00BB800EE012
:10679000FB895B00FB8101233B73FB8943F0010311
:1067A000FB81FB885B00FB80BB885B00BB807B7B45
:1067B00001337B737B7B0F2BD9D9FB89DB439BB2E6
:1067C0005B01FB81FB8918461437BD465DF8047BED
:1067D0007047000080B483B000AF0346FB71FA79C4
:1067E000124913465B0013449B000B441B68104A7C
:1067F0001360FA790D4913465B0013449B000B4468
:1068000004331B680B4A1360FA79084913465B008E
:1068100013449B000B4408331B68074A136000BFF6
:106820000C37BD465DF8047B704700BFC4070020ED
:10683000E8070020EC070020F007002080B483B0B8
:1068400000AF0023FB710BE0FA79214913465B008E
:1068500013449B000B4400221A60FB790133FB7147
:10686000FB79022BF0D91B4BDB681A4A43F001037A
:10687000D360184B04229A62164B1B68154A43F0EA
:1068800080031360144B4FF496521A80124B4FF44E
:106890007A725A80104B40F6D8629A800F4B3C2295
:1068A0001A800E4B40F28A225A800C4B96229A8014
:1068B0000B4B0A221A800A4B6E225A80084B4FF467
:1068C00016729A8000BF0C37BD465DF8047B704796
:1068D000C407002000100040880700209007002017
:1068E0009807002080B58AB000AF0346B9607A608F
:1068F000FB73FB7B022B32D8FA7B1B4913465B00F0
:1069000013449B000B44BA681A60FA7B164913467D
:106910005B0013449B000B4408337A681A60FA7BCF
:106920007B681904104813465B0013449B00034422
:10693000043319607B689BB200221946B8680AF0DC
:106940001BFC7B687B611123BB610023FB6102237D
:106950003B6207F114031946B8680AF07BFA00BFDE
:106960002837BD4680BD00BFC407002080B400AFFB
:106970000E4B00221A700D4B00225A700B4B002256
:106980009A700A4B0022DA70084B00221A71074BEA
:1069900000225A71054B00229A71044B0022DA71D1
:1069A00000BFBD465DF8047B704700BFAC07002008
:1069B00080B586B000AFB9607A603B600346FB7378
:1069C0000023FB75FA7B454913465B0013449B008B
:1069D0000B441B68002B02D10223FB7576E07B6819
:1069E000002B0CBF01230023DAB23B68002B0CBF45
:1069F00001230023DBB21343DBB2002B02D00523BB
:106A0000FB7563E0364B1B78002B02D00123FB752E
:106A10005CE0FB7B1846FFF7DDFEFFF7A7FF314A7E
:106A20007B681360304A3B681360304B55221A7004
:106A3000BB681A782D4B5A70BB685A782B4B9A70EA
:106A4000BB689A78294BDA70BB68DA78274B1A71E1
:106A5000BB681A79254B5A71BB685A79234B9A71D6
:106A6000BB689A79214BDA71BB68DA791F4B1A72CD
:106A70001E4BBE225A721E4B00221A701D4B002262
:106A80001A701D4B00221A701C4B00221A701C4BEE
:106A90000A221A701B4B09221A701B4B00221A7013
:106AA0001A4B00221A701A4B01221A700C4B012249
:106AB0001A70184B1A88184BDA62174B1B68164A63
:106AC00043F001031360144B01225A61134AFB7D0A
:106AD0001370FB7D18461837BD4680BDC4070020E3
:106AE000C0070020B8070020BC070020A007002036
:106AF00082070020800700208107002084070020F3
:106B00007C0700207D0700207E0700207F070020F3
:106B10008307002088070020001000408507002020
:106B200080B584B000AF0346FB710023FB73FA7994
:106B3000284913465B0013449B000B441B68002B41
:106B400002D10223FB733DE0234B1B78002B02D0C4
:106B50000123FB7336E0FB791846FFF73BFEFFF796
:106B600005FF1E4BCC221A701C4B44225A701C4B42
:106B700000221A701B4B00221A701B4B00221A7045
:106B80001A4B00221A701A4B02221A70194B00225B
:106B90001A70194B00221A70184B00221A70184BE9
:106BA00002221A700C4B01221A70164B1A88164BCF
:106BB000DA62154B1B68144A43F001031360124B51
:106BC00001225A61114AFB7B1370FB7B1846103778
:106BD000BD4680BDC4070020C0070020A0070020DC
:106BE0008207002080070020810700208407002002
:106BF0007C0700207D0700207E0700207F07002003
:106C0000830700208807002000100040850700202F
:106C100090B583B000AF2C4B1B78002B02D12B4BCF
:106C200003221A702A4B1B78022B43D0022B44DC20
:106C3000002B02D0012B07D03FE0264B264A92E8DA
:106C4000030083E8030038E0244B1B68002B33D09B
:106C5000214B1B781AB2204B5B781BB21B021BB274
:106C600013431BB2FB80FB88BB801B4B1C7A0821A3
:106C7000194800F0EBF903469C4213D1B7F9042000
:106C800013469B0013445B00002B00DA0F331B11EB
:106C90001A46124B1B6812B21A80114B1B68012254
:106CA0001A7003E00E4B1B6800221A700B4B002277
:106CB0001A6001E000BF00E000BF0A4B00221A701A
:106CC00000BF0C37BD4690BD84070020850700201B
:106CD00083070020F4070020AC070020B80700203D
:106CE000BC070020C007002080B500AF8D4B0022FC
:106CF0001A618D4B1B78012B40F086808B4B1B78E3
:106D0000022B26D0022B2ADC002B02D0012B06D02E
:106D100025E0874B1B68874A12689A611FE0864B03
:106D20001B781A46854B9B5C1A46854B1B7842FAAA
:106D300003F303F00103002B05D07D4B1B68814A50
:106D400012689A610BE07A4B1B687A4A12689A6162
:106D500005E0774B1B687B4A12689A6100BF734B52
:106D60001B780133DAB2714B1A70704B1B78022B0F
:106D700008D86E4B1B781A46734B33F81220694BB8
:106D8000DA624AE1694B00221A70684B1B781A4696
:106D90006D4B33F81220634BDA62694B1B78013379
:106DA000DAB2674B1A70664B1B78072B40F23581BD
:106DB000634B00221A70604B1B780133DAB25E4BD2
:106DC0001A705D4B1A78614B1B789A42C0F025818E
:106DD000594B00221A705E4B1B78002B0BD0524B84
:106DE00002221A70514B1B781A465A4B33F8122064
:106DF0004C4BDA6211E14B4B1B684A4A23F001030A
:106E00001360FFF705FF08E1474B1B78022B40F0AA
:106E1000A780464B1B78022B12D0022B44DC002BA0
:106E200002D0012B06D03FE0414B1B68414A12685B
:106E30009A6139E03E4B1B68424A12689A6133E01E
:106E40003B4B1B681A693F4B1B681340002B14D047
:106E5000394B1B781A46404B9B5C5AB2384B1B7817
:106E6000194601238B405BB2134359B2324B1B7856
:106E70001A46C9B2384B995415E02F4B1B781A4665
:106E8000354B9B5C5AB22E4B1B78194601238B4025
:106E90005BB2DB435BB2134059B2274B1B781A46F7
:106EA000C9B22D4B995400BF204B1B780133DAB285
:106EB0001E4B1A701D4B1B78022B29D91B4B00222D
:106EC0001A701F4B1B780133DAB21D4B1A701C4B22
:106ED0001B78072B1CD91A4B00221A70164B1B78F3
:106EE0000133DAB2144B1A70134B1A78184B1B7813
:106EF0009A420DD30B4B1B680A4A23F0010313601F
:106F0000FFF786FE0C4B00221A70144B00221A70F9
:106F1000064B1B781A460F4B33F81220014BDA62EE
:106F20007BE000BF001000408207002081070020A6
:106F3000E8070020EC0700207F070020A0070020C2
:106F40007E070020F0070020900700207C0700202B
:106F50007D07002098070020AC070020C007002014
:106F60002F4B1B78002B58D12E4B1B78022B12D0A5
:106F7000022B20DC002B02D0012B06D01BE02A4B79
:106F80001B682A4A12689A6115E0274B1B68284A39
:106F900012689A610FE0244B1B681A69244B1B6826
:106FA0001340002B03D0234B00221A7002E0214B28
:106FB00001221A7000BF1B4B1B780133DAB2194B48
:106FC0001A70184B1B78022B08D8164B1B781A46E0
:106FD000194B33F81220194BDA621EE0114B0022D4
:106FE0001A70174B00221A70124B1B78002B0BD013
:106FF0000B4B01221A70124B1B781A46114B33F8B7
:1070000012200E4BDA6208E00C4B1B680B4A23F08F
:10701000010313600C4B00221A7000BF80BD00BF3B
:107020008207002080070020E8070020EC070020EE
:10703000F00700208407002088070020001000408F
:107040008107002090070020C007002080B485B091
:1070500000AF78600B46FB700023FB730023BB730B
:1070600025E0BB7B7A6813441B787B7300233B735A
:1070700017E0FA7B7B7B5340DBB203F00103FB722A
:10708000FB7B5B08FB73FB7A002B04D0FB7B83F05C
:107090007303DB43FB737B7B5B087B733B7B0133BD
:1070A0003B733B7B072BE4D9BB7B0133BB73BA7BC0
:1070B000FB789A42D5D3FB7B18461437BD465DF862
:1070C000047B704780B58AB000AF786007F1080391
:1070D0000022194615480BF0A5FB07F11C030022FE
:1070E000194612480BF081FCFB7F03F5FA639BB253
:1070F000FB847B7F87F82430BB7F87F823303B7A83
:1071000087F820307B7A87F82130BB7A87F82230E5
:107110003B7F87F825307B681A4607F1200303CBB5
:107120001060516078682837BD4680BD3027002048
:1071300080B588B000AF3B4683E80300FB88DBB234
:107140003033DBB2FB773B797B77FB78BB777B799E
:107150003B7707F11C030022194610480BF0BEFBD9
:107160003B783B727B787B72BB78BB720023FB72EF
:1071700000237B610023BB6107F10803002219464D
:1071800006480BF0B2FA43F2F222012103480BF059
:107190004BFD00BF2037BD4680BD00BF302700201B
:1071A00080B588B000AF7860796800200A46034651
:1071B000C7E9042307F1100318460FF0AFF9F8618F
:1071C000FB691B68DBB2BB72FB695B68DBB27B727D
:1071D000FB699B68DBB23B72FB69DB68DBB2FB726D
:1071E000FB691B69DBB20133DBB23B73FB695B6993
:1071F0009BB203F26C739BB2FB8107F1080393E827
:107200000300FFF795FF00BF2037BD4680BD00009B
:1072100080B400AF094B00221A80094B00221A707B
:10722000084B00221A70084B00221A70074B0022EC
:107230001A7000BFBD465DF8047B7047EC09002062
:10724000EE090020EF090020FC070020F0090020D3
:1072500090B583B000AF844B1B88002B40F0A98011
:1072600000237B609EE081497A6813465B001344EB
:107270009B000B440B331B780133D8B27B497A68EF
:1072800013465B0013449B000B440B3302461A70F9
:1072900076497A6813465B0013449B000B44043321
:1072A000B3F9003013F5967F4DDB70497A681346C9
:1072B0005B0013449B000B440433B3F9003040F2ED
:1072C000E24293423FDC69497A6813465B0013440B
:1072D0009B000B4406331B78012B34D163497A6839
:1072E00013465B0013449B000B440B3300221A70BF
:1072F0005E497A6813465B0013449B000B440433D9
:10730000B3F9000059497A6813465B0013449B00A7
:107310000B44023302461A8054497A6813465B00D4
:1073200013449B000B440833188850497A6813466D
:107330005B0013449B000B440233B3F9003001227D
:10734000194600F0FFFC49497A6813465B00134474
:107350009B000B440B331B78052B20D943497A68DB
:1073600013465B0013449B000B440B3300221A703E
:107370003E497A6813465B0013449B000B44083374
:1073800018883A497A6813465B0013449B000B4403
:107390000233B3F900300022194600F0D3FC7B68B9
:1073A00001337B60324B1B781A467B689342FFF6B1
:1073B0005AAF304B1B781A462B4B1B889A4205D983
:1073C000294B1B88DBB21846FFF7AAFB264B1B880C
:1073D000142B33D9284B1B781946244A0B465B00E3
:1073E0000B449B0013440A331878234B1B7819462F
:1073F0001E4A0B465B000B449B0013441B78DB00CA
:107400001E4A99181C4B1B781A4613465B001344FE
:107410009B00164A13441A1D174B1B781C46234623
:107420005B0023449B00114C23440633FFF7C0FA52
:10743000114B1B780133DAB20F4B1A700A4B1B88C1
:1074400001339AB2084B1A800B4B1A78084B1B7801
:107450009A4205D3084B00221A70034B00221A806F
:1074600000BF0C37BD4690BDEC090020000800208D
:10747000FC070020F0090020EE0900200000002099
:1074800080B584B000AF0346B9607A60FB730B4BE4
:107490001B78022B0DD8FB7B7A68B9681846FFF77A
:1074A00021FA064B1B780133DAB2044B1A70002321
:1074B00000E0012318461037BD4680BDF0090020CA
:1074C00080B483B000AF0346FB710B46BB8013460C
:1074D000BB712D4B1B78282B4FD82B4B1B78194693
:1074E0002A4A0B465B000B449B001344FA791A703E
:1074F000254B1B781946254A0B465B000B449B0025
:10750000134402334FF400421A801F4B1B78194674
:107510001E4A0B465B000B449B00134406330022BB
:107520001A70194B1B781946184A0B465B000B441E
:107530009B0013440833BA881A80134B1B781946F2
:10754000124A0B465B000B449B0013440A33BA7982
:107550001A700D4B1B7819460C4A0B465B000B4406
:107560009B0013440B3300221A70074B1B78013326
:10757000DAB2054B1A70002300E0012318460C37DD
:10758000BD465DF8047B7047FC0700200008002022
:1075900080B588B002AF78600023BB7200233B81C6
:1075A0007B685B683B617B681B68FB607B681B7A60
:1075B0003B75274B009307F108030FCB00F052F8FF
:1075C0007B681B693B617B68DB68FB607B681B7DBC
:1075D0003B75204B009307F108030FCB00F042F8F6
:1075E0007B68DB693B617B689B69FB607B6893F828
:1075F00020303B75184B009307F108030FCB00F0C8
:1076000031F87B689B6A3B617B685B6AFB607B68E7
:1076100093F82C303B75114B009307F108030FCB07
:1076200000F020F87B685B6B3B617B681B6BFB6049
:107630007B6893F838303B75094B009307F10803DA
:107640000FCB00F00FF800BF1837BD4680BD00BF5C
:10765000F4090020040A0020140A0020240A002053
:10766000340A002090B585B000AF3C4684E80F0096
:107670003B6A1C463B460FCB84E80F000021386A6A
:1076800000F09EF800BF1437BD4690BD80B500AF36
:1076900000210A4800F094F80021094800F090F811
:1076A0000021084800F08CF80021074800F088F815
:1076B0000021064800F084F800BF80BDF4090020D6
:1076C000040A0020140A0020240A0020340A0020A2
:1076D00080B483B000AF0346FB71084B9B78FA7906
:1076E0009A4205D0054AFB799370044B00221A8018
:1076F00000BF0C37BD465DF8047B7047040A0020CC
:1077000080B483B000AF0346FB71084B9B78FA79D5
:107710009A4205D0054AFB799370044B00221A80E7
:1077200000BF0C37BD465DF8047B7047140A00208B
:1077300080B483B000AF0346FB71084B9B78FA79A5
:107740009A4205D0054AFB799370044B00221A80B7
:1077500000BF0C37BD465DF8047B7047240A00204B
:1077600080B483B000AF0346FB71084B9B78FA7975
:107770009A4205D0054AFB799370044B00221A8087
:1077800000BF0C37BD465DF8047B7047F40900204C
:1077900080B483B000AF0346FB71084B9B78FA7945
:1077A0009A4205D0054AFB799370044B00221A8057
:1077B00000BF0C37BD465DF8047B7047340A0020DB
:1077C00080B582B000AF78600B46FB707B689B7819
:1077D000082B00F23F8201A252F823F00178000842
:1077E0003178000861780008D978000851790008DC
:1077F000C57900083B7A0008CF7A0008B37A000800
:107800007B681B7B002B09D17B6858687B689B6871
:107810009BB20122194609F0AFFC26E27B6858684A
:107820007B689B689BB20022194609F0A5FC1CE20C
:107830007B681B7B002B09D17B6858687B689B6841
:107840009BB20022194609F097FC0EE27B6858684B
:107850007B689B689BB20122194609F08DFC04E20B
:107860007B681B88322B17D87B681B7B002B09D1C8
:107870007B6858687B689B689BB20022194609F0B8
:107880007BFC20E07B6858687B689B689BB2012288
:10789000194609F071FC16E07B681B7B002B09D1AF
:1078A0007B6858687B689B689BB20122194609F087
:1078B00063FC08E07B6858687B689B689BB2002289
:1078C000194609F059FC7B681B88632B40F2C48180
:1078D0007B6800221A80BFE17B681B880A2B17D8BF
:1078E0007B681B7B002B09D17B6858687B689B6891
:1078F0009BB20022194609F03FFC20E07B685868E3
:107900007B689B689BB20122194609F035FC16E0A2
:107910007B681B7B002B09D17B6858687B689B6860
:107920009BB20122194609F027FC08E07B685868E1
:107930007B689B689BB20022194609F01DFC7B689E
:107940001B88132B40F28A817B6800221A8085E114
:107950007B681B88052B17D87B681B7B002B09D104
:107960007B6858687B689B689BB20022194609F0C7
:1079700003FC7AE17B6858687B689B689BB20122B4
:10798000194609F0F9FB70E17B681B7B002B09D1DC
:107990007B6858687B689B689BB20122194609F096
:1079A000EBFB08E07B6858687B689B689BB2002211
:1079B000194609F0E1FB7B6800229A707B6800227F
:1079C0001A8052E17B681B88B3F5967F17D87B68D5
:1079D0001B7B002B09D17B6858687B689B689BB236
:1079E0000022194609F0C8FB3FE17B6858687B68B4
:1079F0009B689BB20122194609F0BEFB35E17B680A
:107A00001B7B002B09D17B6858687B689B689BB205
:107A10000122194609F0B0FB08E07B6858687B68D2
:107A20009B689BB20022194609F0A6FB7B680022E6
:107A30009A707B6800221A8017E17B681B88042BF0
:107A400017D87B681B7B002B09D17B6858687B6843
:107A50009B689BB20022194609F08EFB20E07B68F0
:107A600058687B689B689BB20122194609F084FB29
:107A700016E07B681B7B002B09D17B6858687B680C
:107A80009B689BB20122194609F076FB08E07B68EF
:107A900058687B689B689BB20022194609F06CFB12
:107AA0007B681B88632B40F2DB807B6800221A8096
:107AB000D6E0FB78002B00F0D5807B685A687B68A5
:107AC0009B689BB21946104609F06EFBCAE07B68C2
:107AD0001B88092B17D87B681B7B002B09D17B687F
:107AE00058687B689B689BB20022194609F044FBEA
:107AF000A8E07B6858687B689B689BB201221946A6
:107B000009F03AFB9EE07B681B88092B1BD97B6838
:107B10001B88312B17D87B681B7B002B09D17B6816
:107B200058687B689B689BB20122194609F024FBC8
:107B300088E07B6858687B689B689BB20022194686
:107B400009F01AFB7EE07B681B88312B1BD97B6810
:107B50001B883B2B17D87B681B7B002B09D17B68CC
:107B600058687B689B689BB20022194609F004FBA9
:107B700068E07B6858687B689B689BB20122194665
:107B800009F0FAFA5EE07B681B883B2B1BD97B6807
:107B90001B88632B17D87B681B7B002B09D17B6864
:107BA00058687B689B689BB20122194609F0E4FA89
:107BB00048E07B6858687B689B689BB20022194646
:107BC00009F0DAFA3EE07B681B88632B1BD97B68DF
:107BD0001B88952B17D87B681B7B002B09D17B68F2
:107BE00058687B689B689BB20022194609F0C4FA6A
:107BF00028E07B6858687B689B689BB20122194625
:107C000009F0BAFA1EE07B681B88952B1AD97B68AD
:107C10001B88C72B16D87B681B7B002B09D17B6880
:107C200058687B689B689BB20122194609F0A4FA48
:107C300008E07B6858687B689B689BB20022194605
:107C400009F09AFA7B681B88C72B0DD97B68002244
:107C50001A8009E000BF08E000BF06E000BF04E0B2
:107C600000BF02E000BF00E000BF7B681B884FF64A
:107C7000FF72934205D07B681B8801339AB27B6800
:107C80001A8000BF0837BD4680BD00BF80B483B0F6
:107C900000AF00237B6013E00F4A7B68002102F8ED
:107CA00023100D4A7B689B00134400225A700A4A35
:107CB0007B689B00134400225A807B6801337B6001
:107CC0007B68B3F5C87FE7DB00BF00BF0C37BD465C
:107CD0005DF8047B704700BF440A002080B483B085
:107CE00000AF03463960FB80FB88B3F5C87F16D22E
:107CF000FB88134A12F82330002B09D13B68002B74
:107D000006D03B681B8843F001039AB23B681A8097
:107D1000FB880B4A9B001344B3F902300AE03B682E
:107D2000002B06D03B681B8843F001039AB23B68E6
:107D30001A80002318460C37BD465DF8047B704757
:107D4000440A002080B483B000AF0346FB800B469A
:107D5000BB801346FB70FB88B3F5C87F0AD2FB8853
:107D60000749FA7801F82320FB88054A9B00134451
:107D7000BA885A8000BF0C37BD465DF8047B704757
:107D8000440A002080B584B000AF03460A46FB7168
:107D90001346BB8010200EF0F3F90346FB60BB884E
:107DA000FA7902FB03F318460EF0EAF903461A4685
:107DB000FB681A60FB68BA88DA80FB6800221A81C7
:107DC000FB6800225A81FB6800221A73FB68FA796B
:107DD0001A71FB6818461037BD4680BD80B483B069
:107DE00000AF78607B68002B0ED07B681B7B002B7C
:107DF00007D17B681A897B685B899A4201D101238C
:107E000000E00023DBB200E0012318460C37BD463A
:107E10005DF8047B704780B582B000AF7860396050
:107E20007B68002B1FD072B600BF7868FFF7D6FFC3
:107E30000346002B13D17B681B687A685289114670
:107E40007A68127901FB02F299187B681B791A464D
:107E500038680EF0E6FF62B600BF002304E062B6A9
:107E600000BF012300E0012318460837BD4680BD4E
:107E700080B582B000AF78607B68002B1FD072B6EF
:107E800000BF7868FFF7AAFF0346002B13D17B6879
:107E90005B8901337A68D28893FBF2F101FB02F22D
:107EA0009B1A9AB27B685A817B6800221A7362B669
:107EB00000BF002304E062B600BF012300E00123FD
:107EC00018460837BD4680BD80B582B000AF7860E7
:107ED00039607B68002B2FD072B600BF7868FFF73F
:107EE0007DFF0346002B23D17B681B687A6852898B
:107EF00011467A68127901FB02F299187B681B79A6
:107F00001A4638680EF08DFF7B685B8901337A680A
:107F1000D28893FBF2F101FB02F29B1A9AB27B68C2
:107F20005A817B6800221A7362B600BF002304E006
:107F300062B600BF012300E0012318460837BD46A2
:107F400080BD80B582B000AF786039607B68002B5F
:107F50003BD07B681B687A68128911467A6812796F
:107F600001FB02F298187B681B791A4639680EF0FB
:107F700058FF7B681B7B002B0CD07B685B8901332F
:107F80007A68D28893FBF2F101FB02F29B1A9AB253
:107F90007B685A817B681B8901337A68D28893FB9E
:107FA000F2F101FB02F29B1A9AB27B681A817B689C
:107FB0001A897B685B899A420CBF01230023DBB2DC
:107FC0001A467B681A73002300E00123184608371D
:107FD000BD4680BD80B582B000AF78600E4B9B6817
:107FE0000D4A43F4805393607B68B3F5FA4F02D98E
:107FF0004FF4FA437B60094B094A1A60074B06228B
:108000005A607B68DB08054A9360044809F0FEF873
:1080100000BF0837BD4680BD002004E0602300207B
:108020000030004080B500AF024809F03EF900BFC3
:1080300080BD00BF6023002080B500AF374B142205
:108040001A74364B00221A72344B0022DA60334B1A
:1080500001221A70314B00225A80304B00225A7490
:108060002E4B00229A742D4B4FF400421A832B4B57
:108070002B4A5A61294B5B69284A128B1946012009
:1080800000F07CF9274B06221A74264B01221A7243
:10809000244B4FF46172DA60224B00221A70214B9C
:1080A00000225A801F4B01225A741E4B00229A74E0
:1080B0001C4B4FF480421A831A4B194A5A61194BD0
:1080C0005B69184A128B1946002000F057F9164BCD
:1080D0000F221A74144B01221A72134B4FF496722A
:1080E000DA60114B00221A700F4B00225A800E4B9F
:1080F00002225A740C4B00229A740B4B4FF400521C
:108100001A83094B064A5A61074B5B69064A128B70
:108110001946002000F032F900BF80BD8410002015
:1081200000040048A0100020BC10002080B584B0DE
:1081300000AF3B1D1846FEF7C5FF3B7A022B02D964
:108140003B7A0A2B03D9284B01221A7202E0264BF4
:1081500000221A727B79002B1AD1BB79012B17D818
:10816000214B1B78002B13D11F4B5B88B3F5967FF7
:1081700003D21D4B4FF496725A801B4B03221A7088
:10818000194B5B69184A128B1946012000F0F6F86A
:1081900007F10E0319464A20FFF7A0FD0346322BD4
:1081A00015DD114B1B78002B11D10F4B5B88B32BC6
:1081B00002D80D4BB4225A800B4B03221A700A4B83
:1081C0005B69094A128B1946012000F0D7F806486E
:1081D00000F010F8054800F00DF8054800F00AF826
:1081E00000BF1037BD4680BD84100020A0100020C5
:1081F000BC10002080B582B000AF78607B681B782F
:10820000042B5CD801A252F823F000BFAD82000815
:1082100021820008318200084B8200086F8200082A
:108220007B681B7A002B43D07B6803221A703FE0E7
:108230007B685B685A1E7B685A607B685B68002BB2
:1082400038D17B6803221A7034E07B685B88002B8E
:1082500005D07B685B88013B9AB27B685A807B685B
:108260005B88002B28D17B6804221A7024E07B688D
:108270001B7A002B16D07B685B7C1846FDF7ECFE62
:1082800003461A467B681B7C9A4217D27B68596961
:108290007B681B8B1A46002000F070F87B68002278
:1082A0001A700BE07B6801221A7007E000BF06E03D
:1082B00000BF04E000BF02E000BF00E000BF00BF5D
:1082C0000837BD4680BD00BF80B582B000AF786082
:1082D0007B681B78042B4DD801A252F823F000BF15
:1082E000F58200081D8300083583000845830008D7
:1082F0005D8300087B68DB689AB27B685A807B6884
:1083000002221A707B6805225A607B6859697B6873
:108310001B8B1A46012000F031F82BE07B6859696D
:108320007B681B8B1A46002000F028F87B6800222F
:108330001A701FE07B685B8803F5E1539AB27B6893
:108340005A8017E07B6859697B681B8B1A460020AE
:1083500000F014F87B6800221A700BE07B68596902
:108360007B681B8B1A46002000F008F87B6800220F
:108370001A7000BF00BF0837BD4680BD80B582B00F
:1083800000AF03463960FB711346BB80FB79012BBC
:1083900006D1BB8801221946386808F0EDFE11E0CD
:1083A000FB79002B06D1BB8800221946386808F0FB
:1083B000E3FE07E0FB79022B04D1BB88194638683D
:1083C00008F0F2FE00BF0837BD4680BD80B500AFA3
:1083D0000248FFF779FF00BF80BD00BFA01000205A
:1083E00080B500AF0248FFF76FFF00BF80BD00BF40
:1083F000BC10002080B582B000AF0346FB710B4675
:10840000BB711346BB80FB79022B14D0022B19DC05
:10841000002B02D0012B07D014E0BA88BB79194693
:108420000A4800F019F80DE0BA88BB7919460848E7
:1084300000F012F806E0BA88BB791946054800F04A
:108440000BF800BF00BF0837BD4680BD8410002078
:10845000A0100020BC10002080B582B000AF786072
:108460000B46FB7013463B80FB78012B19D17B68D0
:108470009B7C0133DAB27B689A747B685B883A88AC
:108480009A4202D97B683A885A807B6803221A7024
:108490007B6859697B681B8B1A460120FFF76EFFCA
:1084A00016E0FB78002B13D17B689B7C002B05D05A
:1084B0007B689B7C013BDAB27B689A747B689B7C0F
:1084C000002B05D17B6800225A807B6804221A7039
:1084D00000BF0837BD4680BD80B590B000AF5F4B90
:1084E00050221A8004F06EFDFEF7A8F9FEF790FE08
:1084F000FFF7CCFB5A4802F053FD04215948FDF721
:10850000B5FE0420FDF7C8FAFFF796FD564801F0C6
:10851000CBFD40F6B830FFF75DFD544803F074FD25
:108520005349544800F08AFE00F0BCFB04F04AFCBA
:108530000320FDF791FC06224F495048FCF7D0FF7D
:108540008023BB604E4B7B6001233B734FF48073F1
:108550007B614B4B3B6100233B764FF400733B62E6
:10856000474BFB61002387F824304FF48073FB6294
:108570004FF09043BB62002387F830308023BB6309
:10858000404B7B63012387F83C303B1D1846FEF7C8
:10859000FFFF0220FFF7E4F8402239490020FEF7F0
:1085A0006FFF00227B212720FEF78AFF00227D211A
:1085B0000620FEF785FF00227E212320FEF780FFA4
:1085C00000227F211D20FEF77BFF4FF47A710A20E5
:1085D000FDF754FB4FF47A710B20FDF74FFB4FF47E
:1085E0007A710D20FDF74AFB4FF47A710C20FDF7EC
:1085F00045FB4FF47A710E20FDF740FB4FF47A7182
:108600002D20FDF73BFB40F6B8317B20FDF736FB14
:1086100040F6B8317D20FDF731FB40F6B8317E20C1
:10862000FDF72CFB40F6B8317F20FDF727FB3C22FD
:1086300004210020FDF732FC3D2208210120FDF736
:108640002DFC3E2201210220FDF728FC642101209F
:1086500004F0EAFB00BF4037BD4680BDD8100020C3
:10866000F42300203823002070230020542700200A
:1086700078240020FC240020F02200208C220020FE
:10868000000800480004004880B58AB000AF002010
:10869000FFF71EF80020FFF733F80020FFF748F837
:1086A0000020FFF775F801224FF40041104808F050
:1086B00063FD00224FF480410D4808F05DFD00226B
:1086C0004FF400510A4808F057FDFDF773FEFDF71F
:1086D00065FD04F0F1FC03E03B1D184600F054F882
:1086E0003B1D1846FDF732FA0346012BF4D0F0E7A4
:1086F0000004004880B584B000AF0023FB733B1D2D
:108700001846FEF7DFFCFB79FB73164B1B78FA7BF0
:108710009A4208D0134AFB7B137000F047FF01F028
:10872000A9FDFDF7B9FC00F013F90F4B1B88002BD6
:1087300005D00D4B1B88013B9AB20B4B1A800A4B9C
:108740001B88002B05D10320FEF7F2FF0120FEF766
:10875000BFFF064B1B680133044A136000BF10378C
:10876000BD4680BDE0100020D8100020DC100020A5
:1087700080B500AF034B50221A800020FEF7D8FFCF
:1087800000BF80BDD810002090B587B000AF7860E2
:108790007B681B689BB203F47F637B8200237B6151
:1087A0007B681B7F1BB21B021AB27B685B7F1BB20C
:1087B00013433B827B689B7F1BB21B021AB27B6810
:1087C000DB7F1BB21343FB817B6893F820301BB225
:1087D0001B021AB27B6893F821301BB21343BB8192
:1087E0007B8AB3F5C46F5DD0B3F5C46F00F38980A5
:1087F000B3F5AA6F5DD0B3F5AA6F00F38280B3F52D
:10880000987F13D0B3F5987F7BDCB3F5907F1FD0B2
:10881000B3F5907F75DCB3F5887F10D0B3F5887F12
:108820006FDC512B22D0B3F5807F6AE03B8ADBB24C
:10883000FA89D1B2BA891846FFF7DCFD61E03B8ABC
:10884000BA89D2B2B7F90E101846FFF77BFA58E092
:10885000B7F91030012B02D1FFF7B8FD4EE0B7F9A0
:108860001030002B4AD1FFF7BBFD47E07B681B7F30
:108870001B067A6913437B617B685B7F1B047A6903
:1088800013437B617B689B7F1B027A6913437B6187
:108890007B68DB7F1A467B6913437B617869FEF74F
:1088A0007FFC2EE07B681C330821184602F05BFC3D
:1088B00027E07B681C7FFDF7FFF803469C421FD131
:1088C0007B685B7F022B12D0022B19DC002B02D0BD
:1088D000012B05D014E06E210020FDF751FA0CE0C9
:1088E0001A4B1B6819460120FDF74AFA05E040F2D1
:1088F00001110220FDF744FA00BF01E000BF00E0D3
:1089000000BF7B681B68512B1BD17B681B7F1B063C
:108910007A6913437B617B685B7F1B047A6913432D
:108920007B617B689B7F1B027A6913437B617B6859
:10893000DB7F1A467B6913437B617869FEF730FC65
:1089400000BF00BF1C37BD4690BD00BFDC1000203B
:1089500080B582B000AFBB1D19462D20FFF7BEF9D0
:108960000346B3F57A7F0EDA154B1B78002B0AD13C
:10897000134B01221A706421002004F055FA64217F
:10898000032004F051FABB1D19462D20FFF7A6F96C
:108990000346B3F5FA6F0EDD094B1B78002B0AD0A6
:1089A000074B00221A700021002004F03DFA00213C
:1089B000032004F039FA00BF0837BD4680BD00BF70
:1089C000E110002080B582B000AF78607B681A6843
:1089D000094B1B689A4202D103F00EFB07E07B684B
:1089E0001A68064B1B689A4201D101F0E3FE00BFF2
:1089F0000837BD4680BD00BFF4230020702300204F
:108A000080B582B000AF78607B681A68224B1B6823
:108A10009A4202D103F0F4FA39E07B681A681F4BDE
:108A20001B689A420CD17B68B3F858207B68B3F876
:108A30005A309BB2D31A9BB2184601F0A5FE26E02D
:108A40007B681A68164B1B689A420DD17B68B3F895
:108A500058207B68B3F85A309BB2D31A9BB21946A0
:108A6000786800F0B9FD12E07B681A680D4B1B684E
:108A70009A420CD17B68B3F858207B68B3F85A301F
:108A80009BB2D31A9BB21946786800F0A5FD00BFCF
:108A90000837BD4680BD00BFF423002070230020AE
:108AA000FC2400207824002080B582B000AF7860DC
:108AB0000B467B807B681A68114B1B689A4204D175
:108AC0007B88184601F060FE16E07B681A680D4B43
:108AD0001B689A4205D17B881946786800F07CFDB6
:108AE0000AE07B681A68084B1B689A4204D17B88AD
:108AF0001946786800F070FD00BF0837BD4680BD9C
:108B000070230020FC2400207824002080B582B04F
:108B100000AF0346FB80FB881846FDF7E1FA00BF73
:108B20000837BD4680BD000080B58AB000AF3B1D50
:108B300000221A605A609A60DA601A61002387F88E
:108B400027304FF48041544808F0FEFA034687F876
:108B500027300020FCF708FD0346BB84BB8C184679
:108B6000FBF7F0FD40A3D3E90023FBF755FE0246D7
:108B70000B46104619464FF00002484BFBF74CFEDF
:108B800002460B461046194639A3D3E90023FBF7EA
:108B90006DFF02460B46C7E9062397F82730012BE5
:108BA00003D10320FEF7C4FD02E00020FEF7C0FD64
:108BB00031A3D3E90023D7E90601FCF7BDF803464A
:108BC000002B05D000220821354808F0D5FA0EE028
:108BD0002BA3D3E90023D7E90601FCF78FF803465E
:108BE000002B04D0012208212D4808F0C5FA26A345
:108BF000D3E90023D7E90601FCF79EF80346002BD2
:108C000014D04FF400437B600123BB600023FB6062
:108C100000233B613B1D19461F4808F01BF9002249
:108C20004FF400411C4808F0A7FA18E018A3D3E954
:108C30000023D7E90601FCF761F80346002B00D1B9
:108C40000DE04FF400437B600023BB600023FB601A
:108C500000233B613B1D19460F4808F0FBF800BF9D
:108C60002837BD4680BD00BF0000000000E2E93F9C
:108C700085EB51B81E850340000000000026CB4064
:108C8000000000000064C940000000000070C74000
:108C900000000000007CC54000080048000028409B
:108CA000001C004880B400AF034B0F221A7400BFB1
:108CB000BD465DF8047B70470811002000000000ED
:108CC0002DE9F04389B000AF00237B8107F10A034F
:108CD000194640F22F10FFF701F803461E4607F130
:108CE0000A03194640F24310FEF7F8FF03463344E7
:108CF00007EE903AF8EEE77AD34BC3ED087A07F126
:108D00000A03194640F23310FEF7E8FF03461E46F9
:108D100007F10A03194640F24710FEF7DFFF03464A
:108D200033441846FBF70EFD4FF00002C74BFBF72C
:108D30009DFE02460B4610461946FCF72FF80346E7
:108D4000C14A936107F10A03194640F23110FEF758
:108D5000C5FF03461E4607F10A03194640F24510B7
:108D6000FEF7BCFF0346334407EE903AB8EEE77ACD
:108D7000B54BD3ED067A67EE277AC7ED077A07F190
:108D80000A03194640F22D10FEF7A8FF03461E46BF
:108D900007F10A03194640F24110FEF79FFF034610
:108DA000334407EE903AF8EEE77AA74BC3ED057A25
:108DB00007F10A0319464FF49770FEF78FFF034639
:108DC0001846FBF7BFFC4FF00002A14BFBF74EFE2D
:108DD00002460B469046994607F10A0319464FF49E
:108DE000A170FEF77BFF03461846FBF7ABFC4FF084
:108DF0000002974BFBF73AFE02460B4640464946B7
:108E0000FBF754FB02460B4610461946FBF7C6FF1C
:108E100003468D4AD3618C4BD3ED087A9FED8D7A52
:108E200067EE876A97ED077AC6EE877A864BC3EDC1
:108E3000047A07F10A0319464FF49A70FEF74EFFC1
:108E400003461E4607F10A0319464FF4A470FEF7C5
:108E500045FF0346334407EE903AF8EEE77A7A4B43
:108E6000C3ED027A07F10A03194640F23510FEF706
:108E700035FF03461E4607F10A03194640F2491022
:108E8000FEF72CFF0346334407EE903AF8EEE77AFC
:108E90006D4BC3ED037A07F10A0319464FF49B703B
:108EA000FEF71CFF03461E4607F10A0319464FF45E
:108EB000A570FEF713FF0346334407EE903AF8EE31
:108EC000E77A614BC3ED007A07F10A03194640F2D5
:108ED0003710FEF703FF03461E4607F10A03194643
:108EE00040F24B10FEF7FAFE0346334407EE903A89
:108EF000F8EEE77A544BC3ED017A07F10A031946FD
:108F00004FF49870FEF7EAFE03461E4607F10A0387
:108F100019464FF4A270FEF7E1FE0346334407EE14
:108F2000903AF8EEE77AC7ED067A07F10A03194698
:108F30004FF49970FEF7D2FE0346DAB2464B1A7729
:108F400007F10A0319464FF4A370FEF7C7FE034664
:108F5000DAB2414B83F824203F4E3B461846FEF7D9
:108F6000B1F806F112033A461168526819605A6066
:108F7000394A07F10C0312321068516803C33A7B77
:108F8000354B1B7C9A4269D23B7C022B66D93B7CD9
:108F90000A2B63D8304B1B7C1A463B7BD31A013B10
:108FA0004FF4616202FB03F17B7BC3F13C02134689
:108FB0001B019B1A9B000B44DA171C461546264BD7
:108FC000C3E90245204BD3ED087A97ED077A77EE97
:108FD000677A17EE900AFBF7C7FB04460D461E4B57
:108FE000D3E9022310461946FBF7E8FB14A3D3E9A3
:108FF0000023FBF73BFD02460B4620462946FBF7C4
:1090000035FD02460B4610461946FBF7C7FE0346E0
:109010007B610D4B93ED067AD7ED056AC6EE877A34
:109020000D4BC3ED007A0C4BD3ED007AB1EE007A14
:1090300077EEC77A084BC3ED007A12E0AFF30080F9
:10904000000000000020AC40E4100020000034408C
:10905000000024400000C84208110020584B594A23
:109060001A60574BD3ED007A97ED067AB4EEE77AA3
:10907000F1EE10FA02D5524ABB69136000F0A8F86D
:10908000514BD3ED047AFDEEE77A17EE903A1BB21E
:10909000012219460A20FEF755FE4B4BD3ED067A06
:1090A000B2EE047A67EE877AFDEEE77A17EE903A31
:1090B0001BB2012219460B20FEF744FE424BD3EDB2
:1090C000077AB2EE047A67EE877AFDEEE77A17EE5A
:1090D000903A1BB2012219460E20FEF733FE3A4B9E
:1090E000D3ED057AFDEEE77A17EE903A1BB2012236
:1090F00019461220FEF726FE334BD3ED087AFDEE1B
:10910000E77A17EE903A1BB2012219461020FEF7BB
:1091100019FE2D4BD3ED007AFDEEE77A17EE903A6B
:109120001BB2012219460820FEF70CFE264B93EDD8
:10913000017AF2EE046AC7EE267AFDEEE77A17EEC0
:10914000903A1BB2012219460920FEF7FBFD1E4B87
:10915000D3ED027AFDEEE77A17EE903A1BB20122C8
:1091600019461120FEF7EEFD174B93ED037AF2EE50
:10917000046AC7EE267AFDEEE77A17EE903A1BB244
:10918000012219460F20FEF7DDFD0F4BD3ED027AC9
:109190009FED0E7A67EE876A0B4B93ED067AC6EE6B
:1091A000877AFDEEE77A17EE903A1BB20122194654
:1091B0000C20FEF7C7FD00BF2437BD46BDE8F08395
:1091C000081100200000FA43E41000200000C8420B
:1091D00080B584B000AF0023FB73174B1B7F002BBF
:1091E00001D00123FB73144BD3ED007AFDEEE77A37
:1091F00017EE903ABB8100233B71FB7B7B71B7F983
:109200000C301B121BB2DBB2BB71BB89DBB2FB7132
:1092100000233B7200237B720023BB720023FB728E
:109220003B1D082219464FF44470FCF70DFD00BFAA
:109230001037BD4680BD00BF0811002080B582B048
:1092400000AF78603960184B184A9A66164B184A76
:10925000DA66154B50221A80134BDC225A80124BCF
:10926000FA229A80104B1B88002B08D00E4B9B6E65
:109270007A681A600C4B9B6E1846FCF7A5F90A4BEE
:109280005B88002B08D0084BDB6E3A681A60064BEF
:10929000DB6E1846FCF798F9034B002283F8522046
:1092A00000BF0837BD4680BD38110020A81100203E
:1092B00078120020000000002DE9F04F87B000AFC9
:1092C0000023FB82B44B9B6E1846FCF7ABF9B24B04
:1092D000DB6E1846FCF7A6F9AF4B93F85230002B23
:1092E00001D100F08DF900F04FFA02F0BBFF034608
:1092F0001846FBF727FA4FF00002A84BFBF7B6FB26
:1093000002460B4610461946FBF748FD0346A24AA3
:109310001361A14BD3E9162310461946FBF746FA11
:1093200082468B469C4B1B691846FBF71DFA4FF093
:1093300000029A4BFBF770FA02460B46504659461C
:10934000FBF7B4F802460B4610461946FBF70CFF34
:1093500002460B469049C1E916238F4BD3E916010B
:109360008F4A4FF00003FBF7C7FE02460B4610463C
:109370001946FBF72BFE07EE100A874BD3ED187A40
:10938000B4EEE77AF1EE10FA0FDD834BD3ED187AE5
:109390009FED847A67EE877A17EE900AFBF7C4FE9A
:1093A00002460B467C49C1E916237B4BDB6E5B6AA8
:1093B0001846FBF7B7F94FF00002784BFBF756FB66
:1093C00002460B4610461946FBF7E8FC0346724A74
:1093D0009361714BD3E9162310461946FBF7F6FD4E
:1093E00007EE100A6C4BD3ED067A27EE277ADFEDF5
:1093F0006D6AC7EE267A684BC3ED057A664B93ED2E
:10940000047A654BD3ED067A67EE277A624BC3ED9B
:10941000037A614BD3E91601614A4FF00003FBF771
:109420006BFE02460B461046194602460B4696183E
:109430003E605B417B60D7E90023141843EB0105D4
:109440004FF000024FF000036B0143EAD463620166
:1094500014EB020845EB030918EB0003BB6049EB72
:109460000103FB60D7E90201FBF7B0FD06EE900AAD
:10947000494B93ED187AC6EE877A474BC3ED027AD3
:1094800007F1160319462C20FEF728FC034607EEC9
:10949000903AF8EEE77A404BC3ED0B7A07F11603EA
:1094A00019462820FEF71AFC03461846FBF74AF92E
:1094B0004FF000023C4BFBF7D9FA02460B46104630
:1094C0001946FBF76BFC0346334A5363324B1B6B65
:1094D0001846FBF749F904460D462F4BDB6A184640
:1094E000FBF742F92AA3D3E90023FBF7BFFA0246B0
:1094F0000B4620462946FAF7D9FF02460B4610468E
:109500001946FBF74BFC0346234A1363224B93EDAA
:109510000B7A214BD3ED037A77EE677A1E4BC3EDBE
:10952000087A1D4B5B6A1846FBF71EF904460D4688
:10953000194B1B6A1846FBF717F915A3D3E900234B
:10954000FBF794FA02460B4620462946FAF7AEFF8F
:1095500002460B4610461946FBF720FC03460E4A0E
:1095600053620D4B93ED047A0B4BD3ED0D7A77EEEE
:10957000277A094BC3ED0A7A00F098F900F0F0F968
:1095800000BF1C37BD46BDE8F08F00BFAFF30080C1
:10959000000000000020AC403811002000408F4047
:1095A00080EE360000BA5B4A0000244080B400AF71
:1095B000084B002283F85020064B4FF000021A633C
:1095C000044B4FF000025A6200BFBD465DF8047BB9
:1095D000704700BF3811002080B582B000AF7860BE
:1095E0000B467B80054B9A6E044BDB6E798878685E
:1095F000FCF724FA00BF0837BD4680BD38110020B3
:109600002DE9F04F8DB000AF012387F82F304FF0D8
:1096100000024FF00003C7E90823594B1B881A4684
:10962000574B5B88134407EE903AF8EEE77A544BB9
:10963000C3ED187A524B1B88002B26D0504B9B6EE3
:109640001B79002B1ED04E4B9B6E93F84930002B9C
:1096500018D04B4B1B881A46494B9B6E93F84930E8
:1096600003FB02F248F6A04302FB03F3DA171846A5
:109670001146D7E9082312EB000A43EB010BC7E9B7
:1096800008AB02E0002387F82F303D4B5B88002BAE
:109690002DD03B4BDB6E1B79002B25D0384BDB6E7E
:1096A00093F84930002B1FD0354B5B881A46344B5A
:1096B000DB6E93F8493002FB03F348F6A04202FB4D
:1096C00003F3DA17BB61FA61D7E90823D7E906ABE0
:1096D00051465118B960594643EB0101F960D7E989
:1096E0000223C7E9082302E0002387F82F3097F808
:1096F0002F30002B3FD02249D7E90823C1E9162398
:109700001F4BD3E916011F4A4FF00003FBF7F4FC8F
:1097100002460B461046194602460B4696183E6016
:109720005B417B60D7E90023141843EB01054FF040
:1097300000024FF000036B0143EAD463620114EBB3
:10974000020845EB030918EB00033B6149EB0103F9
:109750007B61D7E90401FBF739FC06EE900A084B60
:1097600093ED187AC6EE877A054BC3ED027A044B67
:10977000012283F8522000BF3437BD46BDE8F08F88
:109780003811002080EE360080B500AF454B9B6E4F
:109790001846FBF796FF0346002B07D0414BDB6EC4
:1097A0001846FBF78EFF0346002B24D13D4B9B6EE2
:1097B00093F84930622B05D83A4BDB6E93F8493069
:1097C000622B18D9374B93F85130002B13D1354BFE
:1097D000D3ED187A9FED347A67EE877A17EE900A08
:1097E000FBF7A2FC02460B462E49C1E916232D4B7E
:1097F000012283F851202B4B9B6E1846FBF761FF2B
:109800000346002B0BD0274BDB6E1846FBF759FFA6
:109810000346002B03D0234B002283F85120214B19
:109820000022A3F866201F4B9B6E1B79002B06D0ED
:109830001C4B9B6EB3F84C201A4BA3F86620194BB7
:10984000DB6E1B79002B0FD0164BDB6EB3F84C2070
:10985000144BB3F866309A4206D2124BDB6EB3F863
:109860004C20104BA3F866200E4BB3F8663040F640
:109870004752934213D90B4B012283F85020094BD6
:10988000D3ED187A9FED087A67EE877A17EE900A83
:10989000FBF74AFC02460B460249C1E9162300BF0A
:1098A00080BD00BF3811002000BA5B4A80B483B08D
:1098B00000AF294BD3ED187AF2EE046A87EEA67A50
:1098C000DFED266AC7EE267AC7ED017A224B93EDCB
:1098D000187AF0EE006AC7EE267A1F4BC3ED077ABE
:1098E0001D4B9B6EB3F84A201B4BDB6EB3F84A301E
:1098F0009A4207D9184B9B6EB3F84A20164BA3F82F
:10990000642006E0144BDB6EB3F84A20124BA3F838
:109910006420114BB3F8643040F64752934214D997
:109920000D4BB3F86430C3F55A630C3307EE903A2D
:10993000B8EEE77AD7ED017A67EE277AB0EE007AD3
:1099400077EE877A044BC3ED077A00BF0C37BD462C
:109950005DF8047B704700BF381100200000C8424A
:1099600080B582B000AF0123FB71C04BD3ED027A0A
:109970009FEDBF7A67EE877AFDEEE77A17EE903AB1
:109980001BB2FA7919464FF49670FEF7DBF9B74B24
:10999000D3ED037AFDEEE77A17EE903A1BB2FA792F
:1099A000194640F22D10FEF7CDF9B04BD3ED047AF5
:1099B000B2EE047A67EE877AFDEEE77A17EE903A18
:1099C0001BB2FA7919464FF49770FEF7BBF9A74B13
:1099D000D3ED067AB2EE047A67EE877AFDEEE77A87
:1099E00017EE903A1BB2FA79194640F23310FEF79F
:1099F000A9F99E4BD3ED057AFDEEE77A17EE903A82
:109A00001BB2FA79194640F22F10FEF79BF9974BDB
:109A1000D3ED077AFDEEE77A17EE903A1BB2FA79AA
:109A200019464FF49870FEF78DF9904BD3ED187AE4
:109A3000FDEEE77A17EE903A1BB2FA79194640F23A
:109A40003110FEF77FF9894B93F850301BB2FA7949
:109A500019464FF49970FEF775F9844BD3ED087AE7
:109A6000FDEEE77A17EE903A1BB2FA7919464FF4F9
:109A70009A70FEF767F97D4BD3ED097AFDEEE77A30
:109A800017EE903A1BB2FA79194640F23510FEF7FC
:109A900059F9764BD3ED0B7AFDEEE77A17EE903A53
:109AA0001BB2FA7919464FF49B70FEF74BF96F4BD6
:109AB000D3ED0C7AFDEEE77A17EE903A1BB2FA7905
:109AC000194640F23710FEF73DF9684B9B6E1B7943
:109AD000002B00F07081654B9B6E5B6A654AA2FBB0
